:020000040800F2
:1000000000400020611E0008AD0F0008AF0F00087F
:10001000B10F0008B30F0008B50F00080000000082
:10002000000000000000000000000000B70F000802
:10003000B90F000800000000BB0F0008BD0F00084A
:10004000B11E0008B11E0008B11E0008B11E000854
:10005000B11E0008B11E0008B11E0008B11E000844
:10006000B11E0008B11E0008B11E0008B11E000834
:10007000B11E0008B11E0008B11E0008B11E000824
:10008000B11E0008B11E0008B11E0008B11E000814
:10009000FD0F00080D1000081D100008B11E00081B
:1000A0002D100008451000085D100008B11E000862
:1000B000B11E00080000000000000000B11E000892
:1000C000B11E0008B11E0008B11E000800000000AB
:1000D000B11E0008B11E0008B11E0008B11E0008C4
:1000E000B11E0008B11E0008B11E0008000000008B
:1000F0000000000000000000000000000000000000
:10010000000000000000000000000000B11E000818
:100110000000000000000000B11E00080000000008
:1001200000000000000000000000000000000000CF
:1001300000000000000000000000000000000000BF
:10014000B11E0008B11E0008000000000000000001
:10015000000000000000000000000000000000009F
:10016000B11E0008B11E0008B11E0008B11E000833
:10017000B11E0008000000000000000000000000A8
:0801800000000000B11E0008A0
:1001880010B5054C237833B9044B13B10448AFF3C9
:1001980000800123237010BD100000200000000023
:1001A800FC1E000808B5034B1BB103490348AFF315
:1001B800008008BD0000000014000020FC1E00089C
:1001C80008B500F0F5F8012803D00B4B1B78012B7C
:1001D80000D008BD00F034FB084B1B68084A1268C1
:1001E800134403F57A739842F3D3034B00221A7031
:1001F80000F0EAF8EDE700BF340000202C000020F2
:100208003000002008B5054B1B78012B00D008BD35
:1002180000F016FB024B1860F9E700BF340000201D
:100228003000002008B5044B01221A70FFF7EAFFDE
:10023800FFF7C6FF08BD00BF3400002008B500F076
:10024800BFF800F0BBF800F0DBFA00F0B5FA00F0F8
:10025800F7FA80B200F070FA00F052F8FFF7E2FF08
:1002680008BD08B500F0ABF800F0DCFA00F052F871
:10027800FFF7A6FF00F066FA08BD72B6704762B6CF
:100288007047000010B588B0024640F6FA73029332
:10029800002304930593069101AB02A90B4800F0D3
:1002A800EDFF08B108B010BD00F0CAFA00F1320441
:1002B8000199064801F060F80028F3D000F07FF8B3
:1002C80000F0BEFAA042F3D9ECE700BF38000020E6
:1002D80010B588B003460C4601AA0021074801F072
:1002E8005EF840B9019B072B06D1039B23B9059BF8
:1002F8002370012000E0002008B010BD3800002065
:1003080008B500F043FC024B01221A7008BD00BF7B
:100318000000002000B583B00DF107010848FFF781
:10032800D7FF012802D003B05DF804FB054B01227A
:100338001A709DF80710024800F048FCF3E700BF68
:1003480060000020000000207047000008B5054B41
:100358001B78012B02D000F031FC08BDC9B2FFF7B1
:1003680091FFF8E700000020074B1B78022B07D00D
:10037800032B07D0012B01D040207047082070477D
:100388003F2070470020704700000020074B1B7873
:10039800022B07D0032B07D0012B01D04020704738
:1003A800082070473F207047002070470000002059
:1003B80008B500F0FBFB00B1012008BD704770478D
:1003C80008B5FFF75AFF08BD10B500F001FA00B9EB
:1003D80010BDFFF7B9FF00F055FE00F009FA00F074
:1003E800FBF920F0604020F07F00044B986000F09B
:1003F800F3F94468FFF743FFA047E9E700ED00E0A1
:1004080070B50D46044606E015F8013B04F8013BBB
:10041800FFF7D5FF3246531E9EB2002AF4D170BDB5
:1004280008B5C1F3080353B903688B4209D040F8F3
:10043800041B4FF40072FFF7E3FF012008BD002002
:10044800FCE70120FAE72DE9F041074601F022FA1E
:1004580000247F2C15D83E6806EB840807EB84033C
:100468005D68FFF7ACFF2A4600234146022001F0F1
:1004780065FA804640B956F82430AB4206D10134BB
:10048800E7E74FF0010801E04FF0000801F01CFA1F
:100498004046BDE8F081000038B50D460C4B984247
:1004A80011D004460B4B994207D1094C29462046E6
:1004B800FFF7B6FF48B1204638BDFFF7C4FF002854
:1004C800F4D10024F7E7044CF0E70024F3E700BF79
:1004D800A000002000400008A40200202DE9F041FF
:1004E80006460C4617461D4621F4FF7828F00108F9
:1004F8000368B3F1FF3F07D0336843450AD1336837
:10050800E41A3444043414E04146FFF789FF002814
:10051800F2D11FE041463046FFF7BEFF06460028ED
:10052800EDD1002016E017F8013B04F8013B013D2E
:100538000FD0FFF744FF311D611AB1F5007FF2D3E8
:1005480008F500713046FFF7A7FF064620B1041DE5
:10055800E9E70120BDE8F0810020FBE74FF0FF3319
:10056800024A1360024A1360704700BFA4020020C9
:10057800A00000200B4601F1FF3C1249091A8C45E6
:1005880019D81149884218D310B5191801390D4CDA
:10059800A14214D820F4FF7121F001010A4CA142B4
:1005A80004D001460948FFF799FF10BD01460848E5
:1005B800FFF794FFF9E700207047002070470020FC
:1005C800F3E700BFFFFF030800400008A402002073
:1005D800A000002030B585B0002303934A1E1F4BAE
:1005E8001B1A9A4231D820F4FF6323F007031C4AF0
:1005F80093422ED30A18013A184CA2422BD8C01A9B
:100608000844C0F3CF25C0F30A0008B10135ADB2E4
:100618000024009401930123029301F03BF9A542C1
:100628000DD9FFF7CCFE03A9684601F0FBF950B9D4
:10063800019B03F5006301930134A4B2EFE70124A1
:1006480001F042F902E00024FAE70024204605B050
:1006580030BD0024FAE70024F8E700BFFFFF0308D5
:100668000040000800B583B000230193134B1B68BA
:10067800B3F1FF3F20D0114A5368019391680B44AE
:100688000193D1680B44019311690B44019351699B
:100698000B44019391690B440193D269134401936C
:1006A800DA4301925B42019301AA04210448FFF74F
:1006B80061FF03B05DF804FB0120FAE7A000002009
:1006C800884100080A4B1A68596811449A6811440D
:1006D800DA6811441A6911445A6911449A690A443A
:1006E800D3F88831D34201D00020704701207047E9
:1006F8000040000808B50C4B1B68B3F1FF3F06D15A
:100708000A4B1B68B3F1FF3F07D1012008BD06481B
:10071800FFF799FE0028F3D1F8E70448FFF793FEA6
:100728000028F3D00120F1E7A0000020A402002057
:100738000048704700400008014B1860704700BF30
:10074800B004002008B500F07BF8174B1B689842EE
:1007580018D3164B1B78B3B90122144B1A704FF4F7
:100768000041134801F08EFA00224FF480714FF0D7
:10077800904001F087FA00F063F80E4B1B681844AC
:10078800094B186008BD0022084B1A704FF480719D
:100798004FF0904001F076FA01224FF480714FF04B
:1007A800904001F06FFAE6E7AC040020A8040020AE
:1007B80000040048B004002008B5FFF7CFFE08BDCC
:1007C80008B5FFF7D7FE08BD08B5FFF703FF08BD5A
:1007D80008B5FFF777FF08BD08B5FFF7A9FF08BD03
:1007E80008B5FFF73FFF00B908BDFFF783FFFBE738
:1007F8004FF0E02300221A615A619A6170470000A5
:1008080008B5FFF7F5FF4FF0E023044A5A610022CC
:100818009A6105211961024B1A6008BD3F19010050
:10082800B40400204FF0E0231B6913F4803F03D089
:10083800024A136801331360704700BFB4040020F4
:1008480008B5FFF7EFFF014B186808BDB404002096
:1008580008B5FFF7F5FF08BD024B002283F84120D9
:10086800704700BFB8040020034BFE221A7058706E
:100878000222A3F844207047B80400200378427885
:1008880043EA0223827843EA0243C07843EA0060DD
:1008980070470870C0F307234B70C0F307438B7091
:1008A800000EC8707047000010B5064C002384F88D
:1008B8004030FFF7D1FFFF2323700123A4F8443011
:1008C80010BD00BFB8040020074BFF221A70002299
:1008D8005A7093F841109970DA701A715A71062299
:1008E800A3F84420704700BFB804002008B50020D2
:1008F800FFF7BAFF08BD000010B5084CFF232370AE
:10090800074BA36400236370A370E370211D0720C5
:10091800FFF7BFFF0823A4F8443010BDB804002037
:10092800141F000810B5054CFF2323700430FFF78F
:10093800A5FFA0640123A4F8443010BDB80400202A
:1009480008B53120FFF790FF08BD000038B5084C06
:10095800FF23237000256570A570FFF705FDE07083
:1009680025716571A5710723A4F8443038BD00BF0F
:10097800B804002038B5FFF76FFF0F4C012584F845
:100988004050FF2323700023637010226270A3700D
:10099800FFF7EAFCE070FFF7F9FC2071FFF7F6FCBF
:1009A800C0F307206071A571E5710823A4F84430ED
:1009B800FFF702FF38BD00BFB804002038B5044671
:1009C800FFF7D2FC627890420FD90A4DA96C681CD7
:1009D800FFF716FDFF232B70AB6C62781344AB64F2
:1009E80063780133A5F8443038BD2220FFF73CFF77
:1009F800FAE700BFB804002038B50446FFF7B4FC96
:100A08006378984214D9201DFFF738FF01460A4D34
:100A1800A8646278681CFFF7F3FCFF232B70AB6CAB
:100A280062781344AB6463780133A5F8443038BD69
:100A38002220FFF719FFFAE7B8040020F8B50546A9
:100A48001746002406E015F8013B1C44E4B2FFF702
:100A5800B6FC31464E1E0029F5D13C600120F8BD98
:100A680030B583B0002501950B4CFF23237004306B
:100A7800FFF704FF014601AAA06CFFF7DFFF6070D3
:100A8800211D0198FFF705FFA570E5700823A4F85C
:100A9800443003B030BD00BFB804002038B5044668
:100AA8000D4B9D6CFFF760FC621C411E2846FFF74A
:100AB80087FE60B1084CFF232370FFF755FCA36C39
:100AC80001380344A3640123A4F8443038BD31201D
:100AD800FFF7CAFEFAE700BFB804002010B50446C5
:100AE800FFF742FC01386378984213DD114BFF226F
:100AF8001A700122A3F84420617879B1A21C0D4B29
:100B0800986CFFF75DFE88B10A4A936C61780B44D4
:100B1800936410BD2220FFF7A7FEFAE7FFF760FEF7
:100B28000028F6D13120FFF79FFEF2E73120FFF7CA
:100B38009BFEEEE7B804002010B50A4B9C6C04300D
:100B4800FFF79CFE01462046FFF73EFE30B1054BFD
:100B5800FF221A700122A3F8442010BD3120FFF7AC
:100B680083FEFAE7B804002008B5FFF72DFC034B15
:100B7800FF221A700122A3F8442008BDB8040020FF
:100B880008B589B2FFF7E2FB08BD0000064B00225A
:100B980083F840209A6483F84320A3F8442083F81C
:100BA800422083F841207047B8040020024B93F894
:100BB800400000B101207047B8040020024B002219
:100BC80083F84320704700BFB804002008B50378B5
:100BD800FF2B24D0354A92F84020012A2BD1C93B5B
:100BE800352B53D8DFE803F04052524F52524C4352
:100BF80049465252525252525252525252525252E2
:100C080052525252525252525252525252525252BC
:100C18005252312B282E5252523452373A3DFFF756
:100C2800A9FE224B93F84330012B33D01F4BB3F965
:100C38004410002932DC08BDFFF7C0FEF1E7FFF7DA
:100C4800DBFEEEE7FFF76EFEEBE7FFF709FFE8E7ED
:100C5800FFF752FEE5E7FFF749FEE2E7FFF734FE4C
:100C6800DFE7FFF721FEDCE7FFF718FFD9E7FFF71B
:100C780035FFD6E7FFF76AFED3E7FFF75DFFD0E75A
:100C8800FFF772FFCDE7FFF75BFECAE72020FFF70B
:100C9800EBFDC6E71020FFF7E7FDC7E7184601237D
:100CA80080F84330FFF76CFFC5E700BFB8040020A9
:100CB800F0B589B00024039404940594069407942D
:100CC800364B5A6942F480025A615A6902F480022A
:100CD8000092009A5A6942F400325A615A6902F441
:100CE80000320192019A5A6942F480225A615B6982
:100CF80003F480230293029B22468D214FF09040FB
:100D080000F0C0FF264D22464FF6FF01284600F0AE
:100D1800B9FF01224FF480714FF0904000F0B2FF0C
:100D28008D230393012604960594069403A94FF096
:100D3800904000F0C9FE602303930494059403A92E
:100D48004FF0904000F0C0FE4FF65F030393049607
:100D58000594069403A9284600F0B6FE4FF4806374
:100D680003930494059403A9284600F0ADFE4FF4BC
:100D780080730393049602270597069403A94FF0FE
:100D8800904000F0A1FEA0230393049605970694D3
:100D980003A9284600F098FE09B0F0BD00100240F3
:100DA8000004004872B6FEE708B50D480D4B036015
:100DB8000223436000238360C3604FF46022026112
:100DC8004FF480124261037643768376C3760377C5
:100DD800437700F0ADF900B908BDFFF7E3FF00BFA6
:100DE800340600200064004008B5324A136823F036
:100DF800070343F0020313602E4B1B6803F007033D
:100E0800022BF9D12C4A136843F4803313602A4B20
:100E18001B6813F4003FFAD0274B5A6822F4741267
:100E280042F4E8125A60DA6A22F00F02DA621A68AB
:100E380042F080721A60204B1B6813F0007FFAD0D2
:100E48001D4B5A6822F0F0025A605A6822F4E06298
:100E580042F480625A605A6822F460525A605A68B2
:100E680022F0030242F002025A60134B5B6803F05F
:100E78000C03082BF9D1114800F0E8FF0F2000F00F
:100E880013F9A8B90C4B1A6B22F003021A631A6BF8
:100E980022F480721A631A6B22F400521A631A6BD6
:100EA80022F400621A631A6B22F480621A6308BD86
:100EB800FFF778FF002002400010024000A24A0419
:100EC80008B500F017F9FFF78FFFFFF7F1FEFFF7FE
:100ED8006BFFFFF7B3F9FFF7C4F9FCE782B00A4BE1
:100EE8009A6942F001029A619A6902F0010200923D
:100EF800009ADA6942F08052DA61DB6903F08053C4
:100F08000193019B02B070470010024000B589B000
:100F18000023039304930593069307930268204BD9
:100F28009A4202D009B05DF804FB03F5D633DA69BA
:100F380042F00072DA61DA6902F000720192019AF5
:100F48005A6942F400325A615B6903F40033029330
:100F5800029B4FF4C0530393022304930323069385
:100F68000923079303A94FF0904000F0ADFD00223C
:100F78001146142000F030FC142000F03DFC002243
:100F88001146152000F028FC152000F035FC002241
:100F98001146162000F020FC162000F02DFCC1E7B9
:100FA80000640040FEE7FEE7FEE7FEE7FEE7704765
:100FB8007047704708B500F0AFF8FFF749FC0B4BD6
:100FC8001B68C01AFA2800D808BD4FF40041084829
:100FD80000F05DFE4FF480714FF0904000F057FE36
:100FE800FFF736FC014B1860EEE700BF5C060020F7
:100FF8000004004808B5024800F083FA08BD00BFA5
:101008003406002008B5024800F07BFA08BD00BF8E
:101018003406002008B5024800F073FA08BD00BF86
:101028003406002008B5034800F03FFE024800F0EF
:101038003CFE08BDE80500209C05002008B50348D3
:1010480000F033FE024800F030FE08BDE80500203D
:101058005005002008B5034800F027FE024800F0BC
:1010680024FE08BDE805002004050020034AD2F844
:10107800883043F47003C2F88830704700ED00E010
:101088007047000010B5074B4FF0FF321A6100247B
:101098001C61DA60DC609A629C62FFF7F1FF20460F
:1010A80010BD00BF0010024010B504460E4B1A7860
:1010B8004FF47A73B3FBF2F30C4A1068B0FBF3F009
:1010C80000F0A8FB68B90F2C01D901200AE0002222
:1010D80021464FF0FF3000F07FFB054B1C600020DD
:1010E80000E0012010BD00BF08000020040000201F
:1010F8000C00002008B5074A136843F0100313607A
:10110800032000F057FB0F20FFF7CEFFFFF7E6FEA6
:10111800002008BD00200240034A1168034B1B78D9
:101128000B441360704700BF6006002008000020D1
:10113800002800F0A18038B5044690F82030D3B1DB
:101148002268136843F001031360FFF781FB05462B
:1011580023685A6812F0010F10D1FFF779FB401B82
:101168000A28F5D9636A43F400336362052384F8D7
:101178002030012038BDFFF7C9FEE1E71A6822F0E8
:1011880002021A60FFF764FB054623685A6812F0EA
:10119800020F0DD0FFF75CFB401B0A28F5D9636AE4
:1011A80043F400336362052384F820300120E1E72B
:1011B800227E012A3DD01A6822F080021A60637EDE
:1011C800012B3BD02268136823F040031360A37EF1
:1011D800012B39D02268136823F020031360E37EC3
:1011E800012B37D02268136843F010031360237F64
:1011F800012B35D02268136823F008031360637F3E
:10120800012B33D02268136823F004031360A3680A
:10121800E268134322691343626913436268013A1F
:1012280021681343CB6100206062012384F82030D9
:10123800A0E71A6842F080021A60C0E722681368C3
:1012480043F040031360C2E72268136843F02003A9
:101258001360C4E72268136823F010031360C6E71D
:101268002268136843F008031360C8E7226813680C
:1012780043F004031360CAE70120704730B590F8C3
:1012880020C00468A4680CF1FF3C5FFA8CFCBCF138
:10129800010F6BD814F0E05F62D0C4F3016CBCF1AD
:1012A800020F05D9436A43F400034362012062E058
:1012B800012404FA0CF41C608B68002B3DD10D68E6
:1012C800CB68046843EA45550CF118031B01E55047
:1012D80003680C690CF1180E03EB0E135C600B7DB0
:1012E800012B35D0D17993791B0443EA01635179F5
:1012F80043EA012314790168234301EB0C11C1F877
:101308008C31D17893781B0443EA0163517843EA1E
:101318000123117802680B4302EB0C12C2F88831E2
:1013280002680CF1180C4FEA0C1C52F80C3043F010
:10133800010342F80C3000201DE04C6843EAC40366
:10134800CC6823430CF11804240105682B51BFE72E
:10135800036803EB0E13596841F480715960C1E7C3
:10136800436A43F400134362012004E0436A43F4F0
:1013780080234362012030BD90F82030013BDBB26E
:10138800012B01D90020704703689B6803EA816339
:10139800B3EB816F01D0012070470020704790F8AF
:1013A80020C00CF1FF3C5FFA8CFCBCF1010F00F28D
:1013B800958030B451B90468E46814F0030F10D173
:1013C800436A43F400134362012077E00468246908
:1013D80014F0030F05D1436A43F40013436201205C
:1013E8006CE001F11B04240105682C5904F0040485
:1013F8009460002C64D101F11B04240105682C5968
:10140800640D1460046801F11B0C4FEA0C1C54F8BD
:101418000C4004F00204D46004686444646804F076
:101428000F041461046864446468C4F30724946175
:10143800046864446468240C5461026802EB011275
:10144800D2F8B8211A70026802EB0112D2F8B8215A
:10145800C2F307225A70026802EB0112D2F8B821CF
:10146800C2F307429A70026802EB0112D2F8B8215F
:10147800120EDA70026802EB0112D2F8BC211A715E
:10148800026802EB0112D2F8BC21C2F307225A719A
:10149800026802EB0112D2F8BC21C2F307429A712A
:1014A800026802EB0112D2F8BC21120EDA7179B986
:1014B8000268D36843F02003D360002030BC704733
:1014C80001F11B04240105682C59E408546099E7CC
:1014D8000268136943F020031361EEE7436A43F49B
:1014E80080234362012070477047704770477047F8
:1014F800704770477047704770477047704770472C
:1015080070472DE9F84F054603685C69D3F80480F5
:101518009F68D3F80CB0D3F810A0D3F8189014F043
:1015280001063BD017F0010616D001229A6017F089
:10153800020F08D117F0040F0CD117F0080606D0D7
:101548004FF4805608E0FFF7CFFF002604E0FFF7CE
:10155800CEFF01E04FF4006617F4807F0DD02B68B2
:101568004FF480729A6017F4007F40F0868017F479
:10157800806F00F0868046F4005617F4803F0DD047
:101588002B684FF480329A6017F4003F40F0838054
:1015980017F4802F00F0838046F4004614F0080FFB
:1015A80007D01BF0100F04D046F400762B681022E9
:1015B800DA6014F0040F02D01BF0080F79D114F090
:1015C800020F04D02B68DB6813F0030F78D114F0F6
:1015D800400F07D01AF0100F04D046F480662B682D
:1015E80010221A6114F0200F02D01AF0080F6BD1E4
:1015F80014F0100F04D02B681B6913F0030F6AD185
:1016080014F4003F02D018F0100F68D114F4803F92
:1016180002D018F0080F69D114F4004F7AD018F0EE
:10162800040F74D014F4807F04D019F0010F01D096
:1016380046F0010614F4007F04D019F0020F01D01F
:1016480046F0020614F4806F04D019F0040F01D09C
:1016580046F0040614F4006F59D019F0700956D0FA
:10166800B9F1400F65D058D8B9F1200F5ED0B9F163
:10167800300F42D146F0200644E02846FFF735FFF8
:101688007BE717F4006F02D046F4804675E72846DA
:10169800FFF72EFF71E72846FFF728FF7EE717F4CC
:1016A800002F02D046F4803678E72846FFF721FF5E
:1016B80074E72B680822DA602846FFF71CFF7EE7EC
:1016C8002846FFF717FF82E72B6808221A61284689
:1016D800FFF713FF8CE72846FFF70EFF90E72B680C
:1016E80010225A602846FFF709FF8FE72B68082267
:1016F8005A602846FFF703FF8EE7B9F1100F01D1B2
:1017080046F008062A68936923F0700393612B68F2
:1017180004225A609EB9BDE8F88FB9F1500F0BD07A
:10172800B9F1600FEED146F48076EBE746F010068B
:10173800E8E746F04006E5E746F08006E2E76B6A30
:1017480033436B622846FFF7DBFEE4E7002808DB3B
:101758000901C9B200F1604000F5614080F800134A
:10176800704700F00F000901C9B2014B19547047C6
:1017780014ED00E000B500F00700C0F1070CBCF163
:10178800040F28BF4FF0040C031D062B0FD9C31EEE
:101798004FF0FF3E0EFA0CF021EA000199400EFAD4
:1017A80003FE22EA0E0241EA02005DF804FB002370
:1017B800EEE70000074AD36823F4E0631B041B0C20
:1017C800000200F4E060034343F0BF6343F40033D6
:1017D800D360704700ED00E010B50446054BD868AB
:1017E800C0F30220FFF7C6FF01462046FFF7AEFF11
:1017F80010BD00BF00ED00E0002807DB00F01F026D
:10180800400901239340024A42F82030704700BF44
:1018180000E100E00138B0F1807F0BD24FF0E02307
:101828005861054AF02182F82310002098610722A8
:101838001A6170470120704700ED00E0044B002258
:10184800DA61044A136943F00103136101807047A8
:1018580068060020002002400C4BDB6813F01003E0
:1018680005D00B4AD36943F00203D3611023074A1A
:10187800D26812F0040F06D00549CA6942F0010285
:10188800CA6143F00403014AD36070470020024054
:10189800680600200A4B1B6913F0800F0BD0084B19
:1018A800084A5A6002F188325A601B6913F0800FA7
:1018B80003D100207047002070470120704700BF07
:1018C8000020024023016745034A136943F080035F
:1018D80013610020704700BF0020024038B504465D
:1018E800FEF7B6FF0546144BDB6813F0010F0AD06C
:1018F800B4F1FF3FF7D024B1FEF7AAFF401BA04286
:10190800F1D9032012E00C4BDB6813F0200F02D052
:10191800094B2022DA60084BDB6813F0100F06D160
:10192800054BDB6813F0040F01D1002038BDFFF729
:1019380093FF0120FAE700BF002002402DE9F84399
:101948001E46244B1B7E012B41D004460F46904671
:10195800204B01221A764CF25030FFF7BFFF0346A6
:1019680078BB012C08D0022C03D04FF004091C4688
:1019780007E04FF00209FAE74FF00109F7E70134F1
:10198800E4B24C451DD22101C1F12002A1F120038E
:1019980028FA01F106FA02F2114326FA03F3194371
:1019A80089B207EB4400FFF749FF4CF25030FFF7CC
:1019B80095FF094B1D6925F001051D6103460028A7
:1019C800DDD0044A002111761846BDE8F8830223C9
:1019D800FAE700BF6806002000200240064B0022FC
:1019E800DA61064B1A6942F004021A611A6942F078
:1019F80040021A61704700BF6806002000200240BC
:101A0800064B0022DA61064B1A6942F002021A619B
:101A180058611A6942F040021A617047680600204E
:101A280000200240264B1B7E012B45D070B5054691
:101A38000E46234B01221A760368934220D04CF2BB
:101A48005030FFF74BFF88BB4FF0FF3333606C68B3
:101A58000121AA686B6803EBC223A34227D9204659
:101A6800FFF7CEFF4CF25030FFF738FF154A1369E5
:101A780023F0020313610146B0B904F50064E8E7F6
:101A88004CF25030FFF72AFF08B101210FE0FFF7B1
:101A9800A5FF4CF25030FFF721FF0146094A1369B0
:101AA80023F00403136102E0346000E00121044BD9
:101AB80000221A76084670BD02210846704700BF0A
:101AC8006806002000200240F0B583B0002362E0E1
:101AD80085685E000324B44025EA0405CC68B44058
:101AE8002C438460456825EA0C054C68C4F300144F
:101AF8009C402C4344605FE0DD08083550F82540E1
:101B080003F0070C4FEA8C0C4FF00F0E0EFA0CFE88
:101B180024EA0E0E0C6904FA0CF444EA0E0440F8A8
:101B2800254060E0032400E0002404FA0EF42C436E
:101B38000CF1020C4F4D45F82C404F4C2568D4430E
:101B480025EA02064F6817F4803F01D042EA0506ED
:101B5800494D2E606D6804EA05064F6817F4003F8A
:101B680001D042EA0506444D6E60AD6804EA0506F8
:101B78004F6817F4801F01D042EA05063E4DAE605B
:101B8800ED682C404E6816F4001F01D042EA0504A7
:101B9800394AD46001330A6832FA03F468D04FF046
:101BA800010C0CFA03FC1CEA0202F3D04C6804F0A6
:101BB8000304013C012C8BD94C6804F00304032C6A
:101BC8000CD0C4685D004FF0030C0CFA05FC24EA45
:101BD8000C0C8C68AC4044EA0C04C4604C6804F0FB
:101BE8000304022C88D004684FEA430E4FF0030C1C
:101BF8000CFA0EFC24EA0C0C4C6804F0030404FAFA
:101C08000EF444EA0C0404604C6814F4403FC1D05C
:101C18001A4CA56945F00105A561A46904F0010401
:101C28000194019C4FEA930C0CF10205114C54F8F5
:101C3800255003F0030E4FEA8E0E0F2404FA0EF41B
:101C480025EA0405B0F1904F3FF46EAF0C4CA0426A
:101C58000AD004F58064A04208D004F58064A0424C
:101C68003FF460AF052460E701245EE702245CE7E7
:101C780003B0F0BD00000140000401400010024024
:101C8800000400480AB18161704781627047436966
:101C980001EA030221EA030141EA02418161704736
:101CA8007047704770477047704710B5044603681F
:101CB8001A6912F0020F11D0DA6812F0020F0DD073
:101CC8006FF002021A610123037703689B6913F01E
:101CD800030F79D0FFF7E6FF0023237723681A69FB
:101CE80012F0040F12D0DA6812F0040F0ED06FF061
:101CF80004021A610223237723689B6913F4407F47
:101D080068D02046FFF7CEFF0023237723681A699F
:101D180012F0080F12D0DA6812F0080F0ED06FF028
:101D280008021A61042323772368DB6913F0030F81
:101D380057D02046FFF7B6FF0023237723681A6998
:101D480012F0100F12D0DA6812F0100F0ED06FF0E8
:101D580010021A61082323772368DB6913F4407F94
:101D680046D02046FFF79EFF0023237723681A6991
:101D780012F0010F03D0DA6812F0010F3FD1236887
:101D88001A6912F0800F03D0DA6812F0800F3DD183
:101D980023681A6912F4807F03D0DA6812F0800F82
:101DA8003BD123681A6912F0400F03D0DA6812F0A9
:101DB800400F39D123681A6912F0200F03D0DA686E
:101DC80012F0200F37D110BDFFF76BFF2046FFF749
:101DD8006AFF81E72046FFF764FF2046FFF763FFAD
:101DE80092E72046FFF75DFF2046FFF75CFFA3E779
:101DF8002046FFF756FF2046FFF755FFB4E76FF080
:101E080001021A612046FFF74BFFB8E76FF0800226
:101E18001A61204600F017F8BAE76FF480721A6169
:101E2800204600F011F8BCE76FF040021A61204626
:101E3800FFF73AFFBEE76FF020021A61204600F074
:101E480001F8C0E77047704770470000014B186001
:101E5800704700BF04000020DFF834D00D480E4959
:101E68000E4A002302E0D458C4500433C4188C42EC
:101E7800F9D30B4A0B4C002301E013600432A24251
:101E8800FBD3FFF7F3F800F011F8FFF719F8FEE7B6
:101E9800004000200000002010000020241F00083F
:101EA8001000002088060020FEE7000070B50D4DE8
:101EB8000D4C641BA4100026A64209D10B4D0C4CF6
:101EC80000F018F8641BA4100026A64205D170BDC6
:101ED80055F8043B98470136EEE755F8043B984718
:101EE8000136F2E71C1F00081C1F00081C1F000811
:101EF800201F0008F8B500BFF8BC08BC9E46704714
:0C1F0800F8B500BFF8BC08BC9E4670474E
:081F14004F70656E424C540051
:041F1C00AD0100080B
:041F2000890100082B
:101F24000400000000127A0001000000100000000C
:0400000508001E6170
:00000001FF
