S01C000044617368426F6172645F426F6F746C6F616465722E7372656336
S3150800000000A00020B10F0008011000080110000828
S315080000100110000801100008011000080000000087
S3150800002000000000000000000000000001100008A9
S31508000030011000080000000001100008B9070008B8
S31508000040011000080110000801100008011000083E
S31508000050011000080110000801100008011000082E
S31508000060011000080110000801100008011000081E
S31508000070011000080110000801100008011000080E
S3150800008001100008011000080110000801100008FE
S3150800009001100008011000080110000801100008EE
S315080000A001100008011000080110000801100008DE
S315080000B001100008011000080110000801100008CE
S315080000C001100008011000080110000801100008BE
S315080000D001100008011000080110000801100008AE
S315080000E0011000080110000801100008011000089E
S315080000F0011000080110000801100008011000088E
S3150800010000000000000000000000000001100008C8
S31508000110011000080110000801100008011000086D
S31508000120011000080110000801100008011000085D
S31508000130011000080110000800000000000000007F
S315080001400110000801100008011000080000000056
S315080001500000000000000000000000000000000091
S31508000160000000000000000001100008011000084F
S315080001700110000800000000000000000000000058
S30D08000180000000000110000850
S3150800018810B5054C237833B9044B13B10448AFF3BB
S3150800019800800123237010BD08000020000000001D
S315080001A8601E000808B5034B1BB103490348AFF3A3
S315080001B8008008BD000000000C000020601E000832
S315080001C872B6704762B670472DE9F04184B00446A6
S315080001D80D4617469846684601F0D0FD0299164B13
S315080001E8A3FB01318909002201E00132D2B2112AA2
S315080001F81DD8124B13F8120003EB420393F801C0FB
S3150800020800EB0C0303FB0443B1FBF3FE03FB1E16CA
S31508000218002EEAD11FFA8EF32B80013B9BB2B3F569
S31508000228806FE2D2387088F800C0012000E000200C
S3150800023804B0BDE8F08100BFD34D6210E81E00087F
S3150800024830B58DB00022ADF82E208DF82D200CABD8
S3150800025803F8042D0DF12D020DF12E014FF47A70D5
S31508000268FFF7B2FF002836D01D4C1E4B23601E4BE5
S3150800027823631E4B63630025A561E56125626562F4
S31508000288A562E562A560E5609DF82D30013B1B0473
S3150800029823619DF82C30013B1B056361BDF82E30A0
S315080002A86360204600F064FF0695079501230893C6
S315080002B88022019202954FF6E07203920422049274
S315080002C8059509930E230A930DEB0201204600F0C3
S315080002D8CFFE0DB030BDB221054800F06AFAC3E773
S315080002E824000020006400408C00002068000020DC
S315080002F8781E000810B50D4A136B40F2E1741C60AD
S31508000308146B0023A360146BE360126B116106E09B
S31508000318064A126BC45C1A4414750133DBB28B4265
S31508000328F6D33221014800F0DDFF10BD2400002075
S3150800033838B504460D46002211460F4801F0DCF888
S31508000348B8B90D4B5B6B1A68042A01D0002011E076
S315080003589B687BB9002304E01A44127DE2540133F2
S31508000368DBB2054A526B11698B42F5D32970012015
S3150800037800E0002038BD00BF2400002008B5FFF7BC
S315080003881FFF08BD10B500F0CDF900B910BD00F083
S3150800039891FA00F0DBF900F031FE00F0C7F920F019
S315080003A8604020F07F00044B986000F0BFF944686D
S315080003B8FFF708FFA047E9E700ED00E070B508E099
S315080003C84D1C461C0B78037000F0B4FA30462946D3
S315080003D82246531E9CB2002AF2D170BD08B5C1F355
S315080003E8080353B903688B4209D040F8041B4FF435
S315080003F80072FFF7E3FF012000E0002008BD012096
S31508000408FCE72DE9F041074601F040FA00247F2C65
S3150800041814D83E68A30006EB03083B445D6800F061
S3150800042889FA2A4600234146022001F07FFA38B99C
S3150800043856F82430AB4209D10134E8E7012400E034
S31508000448002401F037FA2046BDE8F0810024F8E7D1
S3150800045838B50D460C4B984211D004460B4B9942B9
S3150800046807D1094C29462046FFF7B8FF48B1204668
S3150800047838BDFFF7C6FF0028F4D10024F7E7044C77
S31508000488F0E70024F3E700BFAC02002000400008AC
S31508000498A80000202DE9F04106460C4617461D46D9
S315080004A821F4FF7828F001080368B3F1FF3F07D065
S315080004B8336843450BD13368E41A3444043415E0E9
S315080004C84146FFF78BFF03460028F1D11FE0414656
S315080004D83046FFF7BDFF06460028ECD1002316E094
S315080004E817F8013B04F8013B013D0FD000F022FA4A
S315080004F8331DE31AB3F5007FF2D308F500713046C9
S31508000508FFF7A6FF064628B1041DE9E701231846A2
S31508000518BDE8F0810023FAE74FF0FF33024A13607B
S31508000528024A1360704700BFA8000020AC020020EA
S3150800053810B54B1E114C241AA34218D8104B9842D2
S3150800054817D90B18013B0D4CA34214D80B46014684
S3150800055820F4FF7020F001000A4CA04203D00A4894
S31508000568FFF798FF04E00948FFF794FF00E000202A
S3150800057810BD0020FCE70020FAE700BFFFFF0308CC
S31508000588FF3F000800400008A8000020AC02002031
S3150800059830B585B0002303934A1E1F4B1B1A9A428F
S315080005A831D820F4FF6323F007031C4A93422ED957
S315080005B80A18013A184CA2422BD8C01A0144C1F3AA
S315080005C8CF25C1F30A0109B10135ADB2002400945B
S315080005D801930123029301F059F9A5420DD900F0B8
S315080005E8A9F903A9684601F013FA50B9019B03F55E
S315080005F8006301930134A4B2EFE7012401F05AF924
S3150800060802E00024FAE70024204605B030BD00249D
S31508000618FAE70024F8E700BFFFFF0308FF3F0008D2
S31508000628104B1B68B3F1FF3F1AD000B583B00D4ACB
S31508000638536891680B44D1680B4411690B44516996
S315080006480B4491690B44D26913445B4202AA42F8E7
S31508000658043D04210448FFF76BFF03B05DF804FB6B
S3150800066801207047AC020020884100080D4B1B6822
S315080006780D4A12681A440D4B1B6813440C4A126833
S3150800068813440C4A12681A440B4B1B681A440B4B42
S315080006981B6813440A4A1268DA4201D000207047D8
S315080006A80120704700400008044000080840000878
S315080006B80C400008104000081440000818400008BC
S315080006C88841000808B50D4B1B68B3F1FF3F0BD1ED
S315080006D80B4B1B68B3F1FF3F0DD00948FFF791FE96
S315080006E8034648B1012307E00448FFF78AFE034694
S315080006F80028EDD100E00123184608BDAC02002009
S31508000708A8000020004870470040000808B5FFF711
S3150800071803FF08BD08B5FFF70BFF08BD08B5FFF7C7
S3150800072837FF08BD08B5FFF7A1FF08BD08B5FFF7ED
S31508000738E9FF08BD08B5FFF773FF034608B9184669
S3150800074808BDFFF7BFFF0346F9E70000014B002283
S315080007581A60704710E000E008B5FFF7F7FF054B89
S315080007684EF65F225A6000229A6005211960024BEC
S315080007781A6008BD10E000E0B0040020044B1B68AE
S3150800078813F4803F03D0034A136801331360704794
S3150800079810E000E0B004002008B5FFF7EFFF014BB2
S315080007A8186808BDB004002008B5FFF7F5FF08BDAE
S315080007B8704708B500F0BEF8FCE7000008B500F079
S315080007C8ADF8012803D00B4B1B78012B00D008BDC8
S315080007D8FFF7E2FF084B1B68084A1268134403F53B
S315080007E8FA739842F3D3034B00221A70FFF7CAFD2F
S315080007F8EDE700BFB8040020B4040020BC040020BC
S3150800080808B5054B1B78012B00D008BDFFF7C4FFB8
S31508000818024B1860F9E700BFB8040020BC040020A2
S3150800082808B5044B01221A70FFF7EAFFFFF7C6FF5F
S3150800083808BD00BFB804002008B5FFF79FFD00F003
S3150800084875F8FFF789FFFFF761FF00F00DF8FFF766
S31508000858E7FF08BD08B500F06DF8FFF78FFF00F051
S315080008680FF8FFF7ABFF08BD08B500F0D1F9FFF799
S31508000878E7FC024B01221A7008BD00BF00000020E1
S3150800088800B583B00DF107010848FFF751FD0128A7
S3150800089802D003B05DF804FB054B01221A709DF8D7
S315080008A80710024800F0D4F9F3E700BFC004002097
S315080008B8000000207047000008B5054B1B78012B7F
S315080008C802D000F0BDF908BDC9B2FFF713FDF8E775
S315080008D800000020074B1B78022B05D0032B05D0F8
S315080008E8012B05D0402070473F20704700207047ED
S315080008F80820704700000020074B1B78022B05D0FC
S31508000908032B05D0012B05D0402070473F207047A0
S3150800091800207047082070470000002008B500F03E
S3150800092885F9034600B10123184608BD08B500F045
S3150800093801FA08BD08B500F002FA08BD014B002205
S315080009485A70704700050020034BFE22DA701871AA
S315080009580222A3F8442070470005002010B5054C6C
S3150800096800232370FFF7EAFFFF23E3700123A4F8A7
S31508000978443010BD00050020064BFF22DA7000221D
S315080009881A71597859719A71DA711A720622A3F886
S31508000998442070470005002008B50020FFF7D4FF5B
S315080009A808BD0000074BFF22DA70074A9A6400223E
S315080009B81A715A719A710722C3F807200822A3F8F0
S315080009C844207047000500200C1F0008044BFF222E
S315080009D8DA7042689A640122A3F84420704700BF77
S315080009E80005002008B53120FFF7AEFF08BD000056
S315080009F838B5084CFF23E370002525716571FFF7A4
S31508000A0869FFA071E571257265720723A4F8443059
S31508000A1838BD00BF0005002038B5FFF78FFF0E4C1C
S31508000A2801252570FF23E3701023237100236371C2
S31508000A38FFF750FFA071FFF75FFFE071FFF75CFF54
S31508000A48C0F3072020726572A5720823A4F84430FB
S31508000A58FFF75CFE38BD00BF0005002038B505461F
S31508000A684478FFF737FF0138844210DC0A4C6A7865
S31508000A78A16C201DFFF7A2FCFF23E3706A78A36C1C
S31508000A881344A3646B780133A4F8443038BD222094
S31508000A98FFF75AFFFAE700BF0005002038B50446F5
S31508000AA84578FFF717FF0138854211DC61680A4D5A
S31508000AB8A9646278281DFFF781FCFF23EB7062782A
S31508000AC8AB6C1344AB6463780133A5F8443038BD7E
S31508000AD82220FFF739FFFAE700050020F8B5054692
S31508000AE81746002406E015F8013B1C44E4B2FFF754
S31508000AF821FF31464E1E0029F5D13C600120F8BD7C
S31508000B0810B5084CFF23E370E21D4168A06CFFF797
S31508000B18E5FF207100236371A3710823A4F8443004
S31508000B2810BD00BF0005002038B505460D4B9C6C66
S31508000B38FFF7D0FE6A1C411E2046FFF7EBFD60B1A1
S31508000B48084CFF23E370FFF7C5FE0138A36C03447E
S31508000B58A3640123A4F8443038BD3120FFF7F4FE16
S31508000B68FAE700BF0005002038B504464578FFF7C0
S31508000B78B1FE023885420EDC114BFF22DA700122DB
S31508000B88A3F84420617851B9FFF7D4FD30B931206C
S31508000B98FFF7DAFE02E02220FFF7D6FE38BDA21CD0
S31508000BA8074B986CFFF7B6FD28B16178044A936C31
S31508000BB80B449364F2E73120FFF7C6FEEEE700BF61
S31508000BC80005002008B54168074B986CFFF7A6FD95
S31508000BD830B1054BFF22DA700122A3F8442008BD7C
S31508000BE83120FFF7B1FEFAE70005002008B5FFF740
S31508000BF8C9FB034BFF22DA700122A3F8442008BD7B
S31508000C080005002008B589B2FFF756FE08BD0000A2
S31508000C18054B00221A709A6483F84320A3F84420E7
S31508000C289A705A70704700BF00050020034B1B785E
S31508000C380BB1012070470020704700BF000500204F
S31508000C48024B002283F84320704700BF00050020A6
S31508000C5808B50378FF2B04D0354A1278012A14D030
S31508000C6808BDFFF7D9FE324B93F84330012B5AD00B
S31508000C782F4BB3F944100029F2DD1846012380F8F2
S31508000C8843300330FFF7BEFFEAE7C93B352B46D8A2
S31508000C98DFE803F03345454245453F363C39454587
S31508000CA845454545454545454545454545454545DE
S31508000CB84545454545454545454545454545241E16
S31508000CC81B2145454527452A2D30FFF7C7FECAE7A4
S31508000CD8FFF7E4FEC7E7FFF779FEC4E7FFF710FF5B
S31508000CE8C1E7FFF75FFEBEE7FFF756FEBBE7FFF76C
S31508000CF843FEB8E7FFF732FEB5E7FFF715FFB2E799
S31508000D08FFF732FFAFE7FFF773FEACE7FFF75AFFC7
S31508000D18A9E7FFF76BFFA6E7FFF764FEA3E720201E
S31508000D28FFF712FE9FE71020FFF70EFEA0E700BFA9
S31508000D380005002008B5642000F006F808BD08B5C7
S31508000D4800F008F808BD0000014B1880704700BF7E
S31508000D584C05002008B5FFF71FFD0F4B1B68984286
S31508000D6810D30E4B1B7873B90C4B01221A704FF02F
S31508000D78904308229A61FFF70FFD094B1B88184410
S31508000D88054B186008BD054B00221A704FF09043B2
S31508000D9808229A62EFE700BF500500204E0500209A
S31508000DA84C05002008B5344A136823F0070343F0B6
S31508000DB802031360136803F00703022B56D12F4A60
S31508000DC8136843F0010313602C4B1B6813F0020FDA
S31508000DD8FAD02A4B5A6822F4741242F450125A600E
S31508000DE8DA6A22F00F02DA621A6842F080721A602A
S31508000DF8224B1B6813F0007FFAD0204B5A6822F062
S31508000E08F0025A605A6822F4E06242F480625A6034
S31508000E185A6822F460525A605A6822F0030242F06D
S31508000E2802025A60154B1B6813F0007FFAD0134B61
S31508000E385A6822F0F0025A605A6822F4E06242F4CC
S31508000E4880625A605A6822F460525A605A6822F0D8
S31508000E58030242F002025A60084B5B6803F00C036F
S31508000E68082BF9D1064800F099FF08BD6A210548FC
S31508000E78FFF79FFCA3E700BF0020024000100240CE
S31508000E8800879303141F000808B500F0DFF8FFF77A
S31508000E9889FF08BD08B5FFF7F7FFFFF7CDFCFFF791
S31508000EA8D9FCFCE730B58DB02A4B9A6942F00102A5
S31508000EB89A619A6902F001020592059A5A6942F4FA
S31508000EC880025A615A6902F480020492049A5A699D
S31508000ED842F400325A615A6902F400320392039ABC
S31508000EE85A6942F400125A615A6902F400120292C7
S31508000EF8029A5A6942F480125A615A6902F48012AF
S31508000F080192019ADA6942F00072DA61DB6903F044
S31508000F1800730093009B0825069501230793002470
S31508000F28089409940A9406A94FF0904000F034FEF4
S31508000F384FF090439D620323069302220792089373
S31508000F4809940A9407230B9306A9034800F024FE7C
S31508000F580DB030BD00100240000C004810B54FF027
S31508000F6890440823A3620E4800F0A4FD204600F02A
S31508000F78A1FD0C4BDA6922F00072DA615A6922F48B
S31508000F8800125A615A6922F400325A615A6922F4DF
S31508000F9880025A619A6922F001029A6110BD00BF5F
S31508000FA80010004800100240DFF834D0002103E0A2
S31508000FB80C4B5B58435004310B480C4B42189A4269
S31508000FC8F6D30B4A02E0002342F8043B094B9A423F
S31508000FD8F9D300F0E9FE00F01BFFFFF75BFFFEE719
S31508000FE800A00020401F000800000020080000207C
S31508000FF80800002078050020FEE7000010B5074B1A
S315080010084FF0FF321A6100241C61DA60DC609A62CC
S315080010189C62FFF7A3FF204610BD00BF00100240E0
S3150800102810B50446074B1868074BA3FB0030800920
S3150800103800F0E8FB002221464FF0FF3000F0AEFB37
S31508001048002010BD04000020D34D621008B5074AD9
S31508001058136843F010031360032000F08DFB00208B
S31508001068FFF7DEFFFFF71EFF002008BD002002403D
S31508001078F0B44B69012202FA03F30468D4F8002293
S3150800108842F00102C4F800220568D5F81C42DA4382
S315080010981440C5F81C42CC69C4B90568D5F80C4291
S315080010A81440C5F80C42CF688D8806684C6945EA2D
S315080010B80745483446F834508F680D8804684E69E1
S315080010C845EA0745483604EBC6046560CC69012C31
S315080010D81ED08C69002C35D10568D5F80442144011
S315080010E8C5F804420C69002C33D10468D4F81452A4
S315080010F82A40C4F814220A6A012A31D00268D2F8AA
S31508001108003223F00103C2F800320020F0BC704711
S315080011180568D5F80C421C43C5F80C420F688D883B
S3150800112806684C6945EA0745483446F834508F68D6
S315080011388D8904684E6945EA0745483604EBC604AE
S315080011486560C6E70568D5F804421C43C5F8044235
S31508001158C8E70468D4F814221A43C4F81422CAE75C
S315080011680168D1F81C221343C1F81C32C6E7704738
S31508001178002800F0B58038B5044690F83D3003B32A
S31508001188022384F83D302268136823F002031360AB
S315080011982268136843F001031360FFF705FB054649
S315080011A823685A6812F0010F10D1FFF7FDFA401BA1
S315080011B80A28F5D9032084F83D00002384F83C3032
S315080011C838BD80F83C30FFF7D2FFD9E75A6812F0E5
S315080011D8010F7AD0A269012A50D01A6822F0800233
S315080011E81A60E369012B4ED02268136823F040037E
S315080011F81360236A012B4CD02268136823F0200356
S315080012081360636A012B4AD02268136823F0100317
S315080012181360A36A012B48D02268136823F00803D1
S315080012281360E36A012B46D02268136823F0040387
S315080012381360A368E2681343226913436269134378
S315080012486268013A21681343CB612268136823F060
S3150800125801031360FFF7A8FA054623685A6812F0CF
S31508001268010F2ED0FFF7A0FA401B0A28F5D903204C
S3150800127884F83D00002384F83C30A1E71A6842F058
S3150800128880021A60ADE72268136843F040031360CA
S31508001298AFE72268136843F020031360B1E72268B2
S315080012A8136843F010031360B3E72268136843F022
S315080012B808031360B5E72268136843F0040313604C
S315080012C8B7E75B6813F0010F04D0042384F83D30B0
S315080012D8012075E700202064012384F83D306FE774
S315080012E801207047F8B503689A6812F0806F08D12C
S315080012F89A6812F0006F04D19A6812F0805F00F0BD
S31508001308EE8090F83C20012A00F0EE80012280F851
S315080013183C2090F83D20D2B2322A14D0622A16D040
S31508001328222A03D0122280F83D2002E0422280F8C1
S315080013383D209A6812F0806F0DD19A6812F0006FF6
S315080013485FD0012508E0522280F83D20F1E7722295
S3150800135880F83D20EDE7002505F1180212019C5892
S3150800136804F001049C50026B9368002B4BD1066865
S3150800137805F118031B01F4581768D26842EA475260
S315080013882243F2500E460446026B136903F00F0314
S315080013981361036805F1180212011344596821F00C
S315080013A80F015960036813445968006B00690143C3
S315080013B85960216BC87D8B7D1B0443EA0063487D11
S315080013C843EA0023097D20680B432F013844C0F8F7
S315080013D88831216BC87E8B7E1B0443EA0063487EEE
S315080013E843EA0023087E216803433944C1F88C314F
S315080013F821688B5843F001038B50FFF7D5F9074648
S315080014083FE00225A8E7076805F11804240157F8FC
S3150800141804C0566843EAC603D268134343EA0C0372
S315080014283B51AFE726B1FFF7BFF9C01BB04228D931
S31508001438032384F83D304DB92268936843F0800346
S315080014489360002384F83C3003203FE0012D05D043
S315080014582268936843F400039360F2E72268936866
S3150800146843F400439360ECE7012D14D023689A6887
S315080014781E4B934314BF01230023A3B1B6F1FF3FC4
S31508001488D0D1002DF0D123689A68194B934314BF1D
S3150800149801230023F1E723689A68164B934314BF80
S315080014A801230023E9E794F83D30DBB2522B0ED02E
S315080014B8722B10D0422B03D0012384F83D3002E06A
S315080014C8222384F83D30002084F83C00F8BD3223F6
S315080014D884F83D30F7E7622384F83D30F3E70423C0
S315080014E880F83D300120F1E70220EFE700000110FF
S315080014F80100000400010008F8B590F83C30012BFB
S3150800150800F03881012380F83C3099B990F83D30CD
S31508001518DBB2222B1FD090F83D30DBB2422B1AD013
S3150800152890F83D30DBB2622B15D090F83D30DBB22F
S31508001538722B10D0012913D000293CD190F83D30E0
S31508001548DBB2322B2FD0522B31D0122B21D02223AB
S3150800155880F83D3020E0002380F83C300220E7E0A0
S3150800156890F83D30DBB2322B0ED090F83D30DBB226
S31508001578522B09D090F83D30DBB2622B04D090F894
S315080015883D30DBB2722BD7D1002380F83C300220DD
S31508001598CEE0422380F83D3016460D460446FFF74E
S315080015A803F9074638E0622380F83D30F4E77223EA
S315080015B880F83D30F0E790F83D30DBB2222B0BD0AF
S315080015C8422B0DD0122B03D0322380F83D30E3E7A7
S315080015D8522380F83D30DFE7622380F83D30DBE7A9
S315080015E8722380F83D30D7E726B1FFF7DDF8C01B30
S315080015F8B04211D9032084F83D00002384F83C3012
S3150800160896E023681B6913F0030F0CBF0123002318
S3150800161863B1B6F1FF3FE7D1002DF2D12368DB6845
S3150800162813F0030F0CBF01230023F1E7002D69D13E
S31508001638636B216805F11B0212018A5802F004023D
S315080016489A60002A60D1216805F11B0212018A589E
S31508001658520D1A60216805F11B0212018958C1F357
S315080016684001D96021681144496801F00F011961E0
S3150800167821680A445268C2F30722DA611D622168A2
S315080016882A011144D1F8B811197521681144D1F8FD
S31508001698B811090A597521681144D1F8B811090C05
S315080016A8997521681144D1F8B811090ED9752168B8
S315080016B81144D1F8BC11197621681144D1F8BC1126
S315080016C8090A597621681144D1F8BC11090C99768A
S315080016D821680A44D2F8BC21120EDA76E5B92268DE
S315080016E8D36843F02003D3605DBB94F83D30DBB282
S315080016F8622B1ED0722B20D0422B13D0012384F8DC
S315080017083D3012E0A36B94E7216805F11B0212012C
S315080017188A58D2085A609DE72268136943F020035D
S315080017281361E1E7122384F83D30002084F83C0071
S31508001738F8BD322384F83D30F7E7522384F83D3064
S31508001748F3E794F83D30DBB2622B0BD0722B0DD041
S31508001758522B03D0012384F83D30E6E7122384F898
S315080017683D30E2E7222384F83D30DEE7422384F859
S315080017783D30DAE70220DBE7074AD36823F4E0635B
S315080017881B041B0C000200F4E060184340F0BF601D
S3150800179840F40030D060704700ED00E030B4174BD5
S315080017A8DB68C3F30223C3F10704042C28BF042407
S315080017B81D1D062D18D9033B4FF0FF3505FA04F40D
S315080017C821EA0401994005FA03F322EA03031943B7
S315080017D800280BDB0901C9B200F1604000F5614039
S315080017E880F8001330BC70470023E5E700F00F00C7
S315080017F80901C9B2024B1954F4E700BF00ED00E02D
S3150800180814ED00E00138B0F1807F0AD2064B586023
S31508001818064AF02182F823100020986007221A60E9
S3150800182870470120704700BF10E000E000ED00E0B7
S31508001838044B0022DA61044A136943F00103136171
S315080018480180704758050020002002400D4BDB68D0
S3150800185813F0100F14D00C4AD36943F00203D3616E
S315080018681023084AD26812F0040F06D00649CA6936
S3150800187842F00102CA6143F00403024AD360704782
S315080018880023EEE70020024058050020074B1B6995
S3150800189813F0800F07D0054B054A5A6002F18832C3
S315080018A85A60002070470120704700BF0020024098
S315080018B823016745034A136943F08003136100202F
S315080018C8704700BF0020024038B50446FEF76CFF93
S315080018D80546154BDB6813F0010F0AD0B4F1FF3F34
S315080018E8F7D0E4B1FEF760FF401BA042F1D9032008
S315080018F814E00D4BDB6813F0200F02D00A4B2022A8
S31508001908DA60094BDB6813F0100F04D1064BDB6865
S3150800191813F0040F05D0FFF799FF012038BD0320FF
S31508001928FCE70020FAE700BF002002402DE9F8434B
S31508001938234C247E012C41D01E4690460F46044669
S315080019481F4B01221A764CF25030FFF7BDFF0346AB
S3150800195870BB012C29D0022C24D04FF0040900248E
S315080019684C4525D22101C1F12002A1F1200328FA0C
S3150800197801F106FA02F2114326FA03F3194389B26A
S3150800198807EB4400FFF754FF4CF25030FFF79CFF73
S315080019980C4B1D6925F001051D61034640B9013444
S315080019A8E4B2DDE74FF00209D9E74FF00109D6E7B7
S315080019B8034A002111761846BDE8F8830223FAE798
S315080019C85805002000200240064B0022DA61064B23
S315080019D81A6942F004021A611A6942F040021A6149
S315080019E8704700BF5805002000200240064B002219
S315080019F8DA61064B1A6942F002021A6158611A69D5
S31508001A0842F040021A61704758050020002002403B
S31508001A18264B1B7E012B45D070B50E460446234B34
S31508001A2801221A760368934220D04CF25030FFF709
S31508001A384BFF88BB4FF0FF33336065680122A16806
S31508001A48636803EBC123AB4227D92846FFF7CEFFC5
S31508001A584CF25030FFF738FF154A136923F0020392
S31508001A6813610246B0B905F50065E8E74CF250304F
S31508001A78FFF72AFF08B101220FE0FFF7A5FF4CF28E
S31508001A885030FFF721FF024609490B6923F0040382
S31508001A980B6102E0356000E00122044B002119764B
S31508001AA8104670BD02221046704700BF5805002030
S31508001AB800200240B0F1904F10D0314B984218D010
S31508001AC8304B984223D0304B98422ED02F4B984211
S31508001AD839D02F4B984244D0002070472D4B9A6A2C
S31508001AE842F400329A629A6A22F400329A62012013
S31508001AF8704703F1784303F503339A6A42F4802260
S31508001B089A629A6A22F480229A620120704703F13F
S31508001B18784303F502339A6A42F400229A629A6A6B
S31508001B2822F400229A620120704703F1784303F5EC
S31508001B3801339A6A42F480129A629A6A22F48012E7
S31508001B489A620120704703F1784303F500339A6ACD
S31508001B5842F400129A629A6A22F400129A620120E2
S31508001B68704703F1784303F5FE339A6A42F4800214
S31508001B789A629A6A22F480029A620120704700BF24
S31508001B880004004800080048000C004800100048F7
S31508001B980014004800100240F0B40A6892FAA2F24B
S31508001BA8B2FA82F218E00E69C46893FAA3F5B5FA90
S31508001BB885F56D00032707FA05F524EA050493FA5F
S31508001BC8A3F5B5FA85F56D0006FA05F52C43C46044
S31508001BD84C68022C36D001320B6833FA02F464D00A
S31508001BE8012494402340F6D04E68046893FAA3F576
S31508001BF8B5FA85F56D00032707FA05F524EA0504FD
S31508001C0893FAA3F5B5FA85F56D0006FA05F52C439A
S31508001C1804604C68013C012CC5D88E68846893FA20
S31508001C28A3F5B5FA85F56D0007FA05F524EA05045E
S31508001C3893FAA3F5B5FA85F56D0006FA05F52C436A
S31508001C488460B0E793FAA3F4B4FA84F4072C15D899
S31508001C584D69046A93FAA3F6B6FA86F6B6000F270C
S31508001C6807FA06F624EA060493FAA3F3B3FA83F303
S31508001C789B0005FA03F323430362ACE74C69456AFC
S31508001C881B0A93FAA3F6B6FA86F6B6000F2707FADA
S31508001C9806F625EA060593FAA3F3B3FA83F39B0037
S31508001CA804FA03F32B43436295E74A68013A012A83
S31508001CB802D90120F0BC7047C968426822EA0302C3
S31508001CC801FB03F313434360F3E70000034B5B6828
S31508001CD8C3F30313024AD35CD84070470010024086
S31508001CE8201F0008034B5B68C3F30223024AD35C30
S31508001CF8D840704700100240301F0008034B5B6845
S31508001D08C3F3C223024AD35CD84070470010024086
S31508001D18301F00080E4B5B6803F480330BB90D4B74
S31508001D2800E00D4B0A4AD06A00F00F000130B3FBF9
S31508001D38F0F0536803F470134FF4701292FAA2F293
S31508001D48B2FA82F2D340023303FB00F0704700BFB1
S31508001D580010024000093D0000127A0008B5054B3C
S31508001D685B6803F00C03082B02D1FFF7D3FF08BD05
S31508001D780148FCE70010024000127A0010B5044634
S31508001D88FFF7ECFF2060FFF7A1FF6060FFF7AAFFE7
S31508001D98A0606068FFF7B2FFE06010BD014B1860ED
S31508001DA8704700BF040000201549D1F8883043F46D
S31508001DB87003C1F88830134B1A6842F001021A609A
S31508001DC85868114A02405A601A6822F0847222F446
S31508001DD880321A601A6822F480221A605A6822F435
S31508001DE8FE025A60DA6A22F00F02DA62186B074AAC
S31508001DF802401A6300229A604FF000638B607047AE
S31508001E0800ED00E0001002400CC07FF8CCFC00FF93
S31508001E1870B50D4E0D4CA41BA4100025A54209D17A
S31508001E280B4E0C4C00F018F8A41BA4100025A5426C
S31508001E3805D170BD56F8253098470135EEE756F8AE
S31508001E48253098470135F2E7381F0008381F00087B
S31508001E58381F00083C1F0008F8B500BFF8BC08BCC6
S31508001E689E467047F8B500BFF8BC08BC9E46704742
S31508001E782F55736572732F626967666564652F44A3
S31508001E886F63756D656E74732F5265706F736974B9
S31508001E986F72792F73717561647261436F727365B6
S31508001EA82F534331392F44617368426F6172642F27
S31508001EB8536F6674776172652F6F70656E424C54FE
S31508001EC82F536F757263652F41524D434D345F53D7
S31508001ED8544D333246332F63616E2E63000000007B
S31508001EE805020602060307030803090309040A0488
S31508001EF80B040C040C050D050E050F050F06100638
S31508001F08100710084F70656E424C54002E2E2F6D20
S31508001F1861696E2E630000000000000000000000E2
S31508001F280102030406070809000000000102030469
S30908001F38AD010008E1
S30908001F3C8901000801
S30D08001F400400000000127A00FB
S70508000FB132
